{
  "contractName": "MyRandom",
  "abi": [
    {
      "inputs": [],
      "stateMutability": "nonpayable",
      "type": "constructor"
    },
    {
      "anonymous": false,
      "inputs": [
        {
          "indexed": true,
          "internalType": "address",
          "name": "from",
          "type": "address"
        },
        {
          "indexed": true,
          "internalType": "address",
          "name": "to",
          "type": "address"
        }
      ],
      "name": "OwnershipTransferRequested",
      "type": "event"
    },
    {
      "anonymous": false,
      "inputs": [
        {
          "indexed": true,
          "internalType": "address",
          "name": "from",
          "type": "address"
        },
        {
          "indexed": true,
          "internalType": "address",
          "name": "to",
          "type": "address"
        }
      ],
      "name": "OwnershipTransferred",
      "type": "event"
    },
    {
      "inputs": [],
      "name": "acceptOwnership",
      "outputs": [],
      "stateMutability": "nonpayable",
      "type": "function"
    },
    {
      "inputs": [],
      "name": "myRandomNumber",
      "outputs": [
        {
          "internalType": "uint256",
          "name": "",
          "type": "uint256"
        }
      ],
      "stateMutability": "view",
      "type": "function",
      "constant": true
    },
    {
      "inputs": [],
      "name": "owner",
      "outputs": [
        {
          "internalType": "address",
          "name": "",
          "type": "address"
        }
      ],
      "stateMutability": "view",
      "type": "function",
      "constant": true
    },
    {
      "inputs": [
        {
          "internalType": "bytes32",
          "name": "requestId",
          "type": "bytes32"
        },
        {
          "internalType": "uint256",
          "name": "randomness",
          "type": "uint256"
        }
      ],
      "name": "rawFulfillRandomness",
      "outputs": [],
      "stateMutability": "nonpayable",
      "type": "function"
    },
    {
      "inputs": [
        {
          "internalType": "address",
          "name": "to",
          "type": "address"
        }
      ],
      "name": "transferOwnership",
      "outputs": [],
      "stateMutability": "nonpayable",
      "type": "function"
    },
    {
      "inputs": [
        {
          "internalType": "address",
          "name": "roller",
          "type": "address"
        }
      ],
      "name": "rollDice",
      "outputs": [
        {
          "internalType": "bytes32",
          "name": "requestId",
          "type": "bytes32"
        }
      ],
      "stateMutability": "nonpayable",
      "type": "function"
    }
  ],
  "bytecode": "0x60c06040523480156200001157600080fd5b5033806000738c7382f9d8f56b33781fe506e897a4f1e2d1725573326c977e6efc84e512bb9c30f76e30c160ed06fb8173ffffffffffffffffffffffffffffffffffffffff1660a08173ffffffffffffffffffffffffffffffffffffffff1660601b815250508073ffffffffffffffffffffffffffffffffffffffff1660808173ffffffffffffffffffffffffffffffffffffffff1660601b815250505050600073ffffffffffffffffffffffffffffffffffffffff168273ffffffffffffffffffffffffffffffffffffffff16141562000123576040517f08c379a00000000000000000000000000000000000000000000000000000000081526004016200011a906200036b565b60405180910390fd5b81600160006101000a81548173ffffffffffffffffffffffffffffffffffffffff021916908373ffffffffffffffffffffffffffffffffffffffff160217905550600073ffffffffffffffffffffffffffffffffffffffff168173ffffffffffffffffffffffffffffffffffffffff1614620001ab57620001aa81620001eb60201b60201c565b5b5050507f6e75b569a01ef56d18cab6a8e71e6600d6ce853834d4a5748b720d06f878b3a460001b600381905550655af3107a400060048190555062000412565b3373ffffffffffffffffffffffffffffffffffffffff168173ffffffffffffffffffffffffffffffffffffffff1614156200025d576040517f08c379a000000000000000000000000000000000000000000000000000000000815260040162000254906200038d565b60405180910390fd5b80600260006101000a81548173ffffffffffffffffffffffffffffffffffffffff021916908373ffffffffffffffffffffffffffffffffffffffff1602179055508073ffffffffffffffffffffffffffffffffffffffff16600160009054906101000a900473ffffffffffffffffffffffffffffffffffffffff1673ffffffffffffffffffffffffffffffffffffffff167fed8889f560326eb138920d842192f0eb3dd22b4f139c87a2c57538e05bae127860405160405180910390a350565b60006200032c601883620003af565b91506200033982620003c0565b602082019050919050565b600062000353601783620003af565b91506200036082620003e9565b602082019050919050565b6000602082019050818103600083015262000386816200031d565b9050919050565b60006020820190508181036000830152620003a88162000344565b9050919050565b600082825260208201905092915050565b7f43616e6e6f7420736574206f776e657220746f207a65726f0000000000000000600082015250565b7f43616e6e6f74207472616e7366657220746f2073656c66000000000000000000600082015250565b60805160601c60a05160601c6111a86200044c600039600081816102de015261072301526000818161038701526106e701526111a86000f3fe608060405234801561001057600080fd5b50600436106100625760003560e01c80632282ffb01461006757806379ba5097146100855780638da5cb5b1461008f57806394985ddd146100ad578063dd02d9e5146100c9578063f2fde38b146100f9575b600080fd5b61006f610115565b60405161007c9190610e44565b60405180910390f35b61008d61011b565b005b6100976102b2565b6040516100a49190610ca2565b60405180910390f35b6100c760048036038101906100c29190610aa3565b6102dc565b005b6100e360048036038101906100de9190610a49565b610378565b6040516100f09190610cfb565b60405180910390f35b610113600480360381019061010e9190610a49565b61059d565b005b60075481565b600260009054906101000a900473ffffffffffffffffffffffffffffffffffffffff1673ffffffffffffffffffffffffffffffffffffffff163373ffffffffffffffffffffffffffffffffffffffff16146101ab576040517f08c379a00000000000000000000000000000000000000000000000000000000081526004016101a290610d84565b60405180910390fd5b6000600160009054906101000a900473ffffffffffffffffffffffffffffffffffffffff16905033600160006101000a81548173ffffffffffffffffffffffffffffffffffffffff021916908373ffffffffffffffffffffffffffffffffffffffff1602179055506000600260006101000a81548173ffffffffffffffffffffffffffffffffffffffff021916908373ffffffffffffffffffffffffffffffffffffffff1602179055503373ffffffffffffffffffffffffffffffffffffffff168173ffffffffffffffffffffffffffffffffffffffff167f8be0079c531659141344cd1fd0a4f28419497f9722a3daafe3b4186f6b6457e060405160405180910390a350565b6000600160009054906101000a900473ffffffffffffffffffffffffffffffffffffffff16905090565b7f000000000000000000000000000000000000000000000000000000000000000073ffffffffffffffffffffffffffffffffffffffff163373ffffffffffffffffffffffffffffffffffffffff161461036a576040517f08c379a000000000000000000000000000000000000000000000000000000000815260040161036190610dc4565b60405180910390fd5b61037482826105b1565b5050565b6000610382610651565b6004547f000000000000000000000000000000000000000000000000000000000000000073ffffffffffffffffffffffffffffffffffffffff166370a08231306040518263ffffffff1660e01b81526004016103de9190610ca2565b60206040518083038186803b1580156103f657600080fd5b505afa15801561040a573d6000803e3d6000fd5b505050506040513d601f19601f8201168201806040525081019061042e9190610ae3565b101561046f576040517f08c379a000000000000000000000000000000000000000000000000000000000815260040161046690610de4565b60405180910390fd5b6000600660008473ffffffffffffffffffffffffffffffffffffffff1673ffffffffffffffffffffffffffffffffffffffff16815260200190815260200160002054146104f1576040517f08c379a00000000000000000000000000000000000000000000000000000000081526004016104e890610e24565b60405180910390fd5b6104ff6003546004546106e3565b9050816005600083815260200190815260200160002060006101000a81548173ffffffffffffffffffffffffffffffffffffffff021916908373ffffffffffffffffffffffffffffffffffffffff160217905550602a600660008473ffffffffffffffffffffffffffffffffffffffff1673ffffffffffffffffffffffffffffffffffffffff16815260200190815260200160002081905550919050565b6105a5610651565b6105ae81610842565b50565b600060016014836105c29190610f7b565b6105cc9190610e8c565b905080600660006005600087815260200190815260200160002060009054906101000a900473ffffffffffffffffffffffffffffffffffffffff1673ffffffffffffffffffffffffffffffffffffffff1673ffffffffffffffffffffffffffffffffffffffff1681526020019081526020016000208190555080600781905550505050565b600160009054906101000a900473ffffffffffffffffffffffffffffffffffffffff1673ffffffffffffffffffffffffffffffffffffffff163373ffffffffffffffffffffffffffffffffffffffff16146106e1576040517f08c379a00000000000000000000000000000000000000000000000000000000081526004016106d890610da4565b60405180910390fd5b565b60007f000000000000000000000000000000000000000000000000000000000000000073ffffffffffffffffffffffffffffffffffffffff16634000aea07f000000000000000000000000000000000000000000000000000000000000000084866000604051602001610757929190610d16565b6040516020818303038152906040526040518463ffffffff1660e01b815260040161078493929190610cbd565b602060405180830381600087803b15801561079e57600080fd5b505af11580156107b2573d6000803e3d6000fd5b505050506040513d601f19601f820116820180604052508101906107d69190610a76565b5060006107f88460003060008089815260200190815260200160002054610971565b90506001600080868152602001908152602001600020546108199190610e8c565b6000808681526020019081526020016000208190555061083984826109ad565b91505092915050565b3373ffffffffffffffffffffffffffffffffffffffff168173ffffffffffffffffffffffffffffffffffffffff1614156108b1576040517f08c379a00000000000000000000000000000000000000000000000000000000081526004016108a890610e04565b60405180910390fd5b80600260006101000a81548173ffffffffffffffffffffffffffffffffffffffff021916908373ffffffffffffffffffffffffffffffffffffffff1602179055508073ffffffffffffffffffffffffffffffffffffffff16600160009054906101000a900473ffffffffffffffffffffffffffffffffffffffff1673ffffffffffffffffffffffffffffffffffffffff167fed8889f560326eb138920d842192f0eb3dd22b4f139c87a2c57538e05bae127860405160405180910390a350565b60008484848460405160200161098a9493929190610d3f565b6040516020818303038152906040528051906020012060001c9050949350505050565b600082826040516020016109c2929190610c76565b60405160208183030381529060405280519060200120905092915050565b6000813590506109ef81611116565b92915050565b600081519050610a048161112d565b92915050565b600081359050610a1981611144565b92915050565b600081359050610a2e8161115b565b92915050565b600081519050610a438161115b565b92915050565b600060208284031215610a5f57610a5e61100a565b5b6000610a6d848285016109e0565b91505092915050565b600060208284031215610a8c57610a8b61100a565b5b6000610a9a848285016109f5565b91505092915050565b60008060408385031215610aba57610ab961100a565b5b6000610ac885828601610a0a565b9250506020610ad985828601610a1f565b9150509250929050565b600060208284031215610af957610af861100a565b5b6000610b0784828501610a34565b91505092915050565b610b1981610ee2565b82525050565b610b2881610f00565b82525050565b610b3f610b3a82610f00565b610f67565b82525050565b6000610b5082610e5f565b610b5a8185610e6a565b9350610b6a818560208601610f34565b610b738161100f565b840191505092915050565b6000610b8b601683610e7b565b9150610b9682611020565b602082019050919050565b6000610bae601683610e7b565b9150610bb982611049565b602082019050919050565b6000610bd1601f83610e7b565b9150610bdc82611072565b602082019050919050565b6000610bf4601a83610e7b565b9150610bff8261109b565b602082019050919050565b6000610c17601783610e7b565b9150610c22826110c4565b602082019050919050565b6000610c3a600e83610e7b565b9150610c45826110ed565b602082019050919050565b610c5981610f2a565b82525050565b610c70610c6b82610f2a565b610f71565b82525050565b6000610c828285610b2e565b602082019150610c928284610c5f565b6020820191508190509392505050565b6000602082019050610cb76000830184610b10565b92915050565b6000606082019050610cd26000830186610b10565b610cdf6020830185610c50565b8181036040830152610cf18184610b45565b9050949350505050565b6000602082019050610d106000830184610b1f565b92915050565b6000604082019050610d2b6000830185610b1f565b610d386020830184610c50565b9392505050565b6000608082019050610d546000830187610b1f565b610d616020830186610c50565b610d6e6040830185610b10565b610d7b6060830184610c50565b95945050505050565b60006020820190508181036000830152610d9d81610b7e565b9050919050565b60006020820190508181036000830152610dbd81610ba1565b9050919050565b60006020820190508181036000830152610ddd81610bc4565b9050919050565b60006020820190508181036000830152610dfd81610be7565b9050919050565b60006020820190508181036000830152610e1d81610c0a565b9050919050565b60006020820190508181036000830152610e3d81610c2d565b9050919050565b6000602082019050610e596000830184610c50565b92915050565b600081519050919050565b600082825260208201905092915050565b600082825260208201905092915050565b6000610e9782610f2a565b9150610ea283610f2a565b9250827fffffffffffffffffffffffffffffffffffffffffffffffffffffffffffffffff03821115610ed757610ed6610fac565b5b828201905092915050565b6000610eed82610f0a565b9050919050565b60008115159050919050565b6000819050919050565b600073ffffffffffffffffffffffffffffffffffffffff82169050919050565b6000819050919050565b60005b83811015610f52578082015181840152602081019050610f37565b83811115610f61576000848401525b50505050565b6000819050919050565b6000819050919050565b6000610f8682610f2a565b9150610f9183610f2a565b925082610fa157610fa0610fdb565b5b828206905092915050565b7f4e487b7100000000000000000000000000000000000000000000000000000000600052601160045260246000fd5b7f4e487b7100000000000000000000000000000000000000000000000000000000600052601260045260246000fd5b600080fd5b6000601f19601f8301169050919050565b7f4d7573742062652070726f706f736564206f776e657200000000000000000000600082015250565b7f4f6e6c792063616c6c61626c65206279206f776e657200000000000000000000600082015250565b7f4f6e6c7920565246436f6f7264696e61746f722063616e2066756c66696c6c00600082015250565b7f4e6f7420656e6f756768204c494e4b20746f2070617920666565000000000000600082015250565b7f43616e6e6f74207472616e7366657220746f2073656c66000000000000000000600082015250565b7f416c726561647920726f6c6c6564000000000000000000000000000000000000600082015250565b61111f81610ee2565b811461112a57600080fd5b50565b61113681610ef4565b811461114157600080fd5b50565b61114d81610f00565b811461115857600080fd5b50565b61116481610f2a565b811461116f57600080fd5b5056fea2646970667358221220c98896c4e1dfb2da7d4ce463bfbe0fc5d65c34722dfc944e3d16495fcd47b6c864736f6c63430008070033",
  "immutableReferences": {
    "255": [
      {
        "length": 32,
        "start": 903
      },
      {
        "length": 32,
        "start": 1767
      }
    ],
    "257": [
      {
        "length": 32,
        "start": 734
      },
      {
        "length": 32,
        "start": 1827
      }
    ]
  },
  "source": "// SPDX-License-Identifier: MIT\r\npragma solidity ^0.8.0;\r\n\r\nimport \"@chainlink/contracts/src/v0.8/VRFConsumerBase.sol\";\r\nimport \"@chainlink/contracts/src/v0.8/ConfirmedOwner.sol\";\r\n\r\ncontract MyRandom is VRFConsumerBase, ConfirmedOwner(msg.sender) {\r\n    // variables\r\n    bytes32 private s_keyHash;\r\n    uint256 private s_fee;\r\n    mapping(bytes32 => address) private s_rollers;\r\n    mapping(address => uint256) private s_results;\r\n    uint256 private constant ROLL_IN_PROGRESS = 42;\r\n    uint256 public myRandomNumber;\r\n\r\n\r\n    // constructor\r\n    // https://docs.chain.link/docs/vrf-contracts/\r\n    constructor()\r\n        VRFConsumerBase(0x8C7382F9D8f56b33781fE506E897a4F1e2d17255, 0x326C977E6efc84E512bB9C30f76E30c160eD06FB)\r\n    {\r\n        s_keyHash = 0x6e75b569a01ef56d18cab6a8e71e6600d6ce853834d4a5748b720d06f878b3a4;\r\n        s_fee = 0.0001 * 10 ** 18;\r\n    }\r\n\r\n    // rollDice function\r\n    function rollDice(address roller) public onlyOwner returns (bytes32 requestId) {\r\n        // checking LINK balance\r\n        require(LINK.balanceOf(address(this)) >= s_fee, \"Not enough LINK to pay fee\");\r\n\r\n        // checking if roller has already rolled die\r\n        require(s_results[roller] == 0, \"Already rolled\");\r\n\r\n        // requesting randomness\r\n        requestId = requestRandomness(s_keyHash, s_fee);\r\n\r\n        // storing requestId and roller address\r\n        s_rollers[requestId] = roller;\r\n\r\n        // emitting event to signal rolling of die\r\n        s_results[roller] = ROLL_IN_PROGRESS;\r\n    }\r\n    \r\n    // fulfillRandomness function\r\n    function fulfillRandomness(bytes32 requestId, uint256 randomness) internal override {\r\n\r\n        // transform the result to a number between 1 and 20 inclusively\r\n        uint256 d20Value = (randomness % 20) + 1;\r\n\r\n        // assign the transformed value to the address in the s_results mapping variable\r\n        s_results[s_rollers[requestId]] = d20Value;\r\n        myRandomNumber = d20Value;\r\n    }\r\n}",
  "sourcePath": "C:\\Users\\Caleb\\Desktop\\hackthon\\polygon\\contract\\contracts\\random.sol",
  "compiler": {
    "name": "solc",
    "version": "0.8.7+commit.e28d00a7.Emscripten.clang"
  },
  "schemaVersion": "3.4.2",
  "updatedAt": "2022-02-05T22:38:42.829Z",
  "networkType": "ethereum",
  "devdoc": {
    "kind": "dev",
    "methods": {},
    "version": 1
  },
  "userdoc": {
    "kind": "user",
    "methods": {
      "acceptOwnership()": {
        "notice": "Allows an ownership transfer to be completed by the recipient."
      },
      "owner()": {
        "notice": "Get the current owner"
      },
      "transferOwnership(address)": {
        "notice": "Allows an owner to begin transferring ownership to a new address, pending."
      }
    },
    "version": 1
  }
}