{
  "contractName": "ExchangeRateOraclePassive",
  "abi": [
    {
      "inputs": [],
      "stateMutability": "nonpayable",
      "type": "constructor"
    },
    {
      "anonymous": false,
      "inputs": [
        {
          "indexed": false,
          "internalType": "uint256",
          "name": "",
          "type": "uint256"
        },
        {
          "indexed": false,
          "internalType": "address",
          "name": "",
          "type": "address"
        }
      ],
      "name": "NewRequest",
      "type": "event"
    },
    {
      "inputs": [],
      "name": "BASE_GAS",
      "outputs": [
        {
          "internalType": "uint256",
          "name": "",
          "type": "uint256"
        }
      ],
      "stateMutability": "view",
      "type": "function"
    },
    {
      "inputs": [],
      "name": "MINIMAL_GAS",
      "outputs": [
        {
          "internalType": "uint256",
          "name": "",
          "type": "uint256"
        }
      ],
      "stateMutability": "view",
      "type": "function"
    },
    {
      "inputs": [
        {
          "internalType": "address",
          "name": "",
          "type": "address"
        }
      ],
      "name": "balances",
      "outputs": [
        {
          "internalType": "uint256",
          "name": "",
          "type": "uint256"
        }
      ],
      "stateMutability": "view",
      "type": "function"
    },
    {
      "inputs": [],
      "name": "oracleOwner",
      "outputs": [
        {
          "internalType": "address",
          "name": "",
          "type": "address"
        }
      ],
      "stateMutability": "view",
      "type": "function"
    },
    {
      "inputs": [
        {
          "internalType": "uint256",
          "name": "",
          "type": "uint256"
        }
      ],
      "name": "requests",
      "outputs": [
        {
          "internalType": "bytes",
          "name": "data",
          "type": "bytes"
        },
        {
          "internalType": "function (uint256) external",
          "name": "callback",
          "type": "function"
        }
      ],
      "stateMutability": "view",
      "type": "function"
    },
    {
      "inputs": [
        {
          "internalType": "address",
          "name": "account",
          "type": "address"
        }
      ],
      "name": "topUp",
      "outputs": [],
      "stateMutability": "payable",
      "type": "function"
    },
    {
      "inputs": [],
      "name": "getPrice",
      "outputs": [
        {
          "internalType": "uint256",
          "name": "",
          "type": "uint256"
        }
      ],
      "stateMutability": "view",
      "type": "function"
    },
    {
      "inputs": [
        {
          "internalType": "bytes",
          "name": "data",
          "type": "bytes"
        },
        {
          "internalType": "function (uint256) external",
          "name": "callback",
          "type": "function"
        }
      ],
      "name": "query",
      "outputs": [],
      "stateMutability": "nonpayable",
      "type": "function"
    },
    {
      "inputs": [
        {
          "internalType": "uint256",
          "name": "requestID",
          "type": "uint256"
        },
        {
          "internalType": "uint256",
          "name": "response",
          "type": "uint256"
        },
        {
          "internalType": "address",
          "name": "account",
          "type": "address"
        }
      ],
      "name": "reply",
      "outputs": [],
      "stateMutability": "nonpayable",
      "type": "function"
    }
  ],
  "bytecode": "0x608060405234801561001057600080fd5b50336000806101000a81548173ffffffffffffffffffffffffffffffffffffffff021916908373ffffffffffffffffffffffffffffffffffffffff160217905550611140806100606000396000f3fe6080604052600436106100865760003560e01c806381d12c581161005957806381d12c581461013a57806389394aae1461017957806398d5fdca146101a2578063a578be16146101cd578063d72d6770146101f857610086565b80631bbed3211461008b57806327e235e3146100a75780632997edac146100e4578063389aa3421461010f575b600080fd5b6100a560048036038101906100a091906109ed565b610221565b005b3480156100b357600080fd5b506100ce60048036038101906100c991906109ed565b61027a565b6040516100db9190610c64565b60405180910390f35b3480156100f057600080fd5b506100f9610292565b6040516101069190610c64565b60405180910390f35b34801561011b57600080fd5b5061012461029a565b6040516101319190610c64565b60405180910390f35b34801561014657600080fd5b50610161600480360381019061015c9190610a6e565b6102a1565b60405161017093929190610bd2565b60405180910390f35b34801561018557600080fd5b506101a0600480360381019061019b9190610a97565b610389565b005b3480156101ae57600080fd5b506101b761064b565b6040516101c49190610c64565b60405180910390f35b3480156101d957600080fd5b506101e2610662565b6040516101ef9190610bb7565b60405180910390f35b34801561020457600080fd5b5061021f600480360381019061021a9190610a16565b610686565b005b34600260008373ffffffffffffffffffffffffffffffffffffffff1673ffffffffffffffffffffffffffffffffffffffff16815260200190815260200160002060008282546102709190610d2b565b9250508190555050565b60026020528060005260406000206000915090505481565b6304c4b40081565b622dc6c081565b600181815481106102b157600080fd5b90600052602060002090600202016000915090508060000180546102d490610eee565b80601f016020809104026020016040519081016040528092919081815260200182805461030090610eee565b801561034d5780601f106103225761010080835404028352916020019161034d565b820191906000526020600020905b81548152906001019060200180831161033057829003601f168201915b5050505050908060010160009054906101000a90048060201c73ffffffffffffffffffffffffffffffffffffffff169063ffffffff1690915083565b60008054906101000a900473ffffffffffffffffffffffffffffffffffffffff1673ffffffffffffffffffffffffffffffffffffffff163373ffffffffffffffffffffffffffffffffffffffff1614610417576040517f08c379a000000000000000000000000000000000000000000000000000000000815260040161040e90610c24565b60405180910390fd5b60005a905060018481548110610456577f4e487b7100000000000000000000000000000000000000000000000000000000600052603260045260246000fd5b906000526020600020906002020160010160009054906101000a90048060201c73ffffffffffffffffffffffffffffffffffffffff169063ffffffff16622dc6c06304c4b4006104a69190610ddb565b856040518363ffffffff1660e01b81526004016104c39190610c64565b600060405180830381600088803b1580156104dd57600080fd5b5087f11580156104f1573d6000803e3d6000fd5b505050505060005a905060003a622dc6c0838561050e9190610ddb565b6105189190610d2b565b6105229190610d81565b905080600260008673ffffffffffffffffffffffffffffffffffffffff1673ffffffffffffffffffffffffffffffffffffffff1681526020019081526020016000205410156105a6576040517f08c379a000000000000000000000000000000000000000000000000000000000815260040161059d90610c44565b60405180910390fd5b80600260008673ffffffffffffffffffffffffffffffffffffffff1673ffffffffffffffffffffffffffffffffffffffff16815260200190815260200160002060008282546105f59190610ddb565b925050819055503373ffffffffffffffffffffffffffffffffffffffff166108fc829081150290604051600060405180830381858888f19350505050158015610642573d6000803e3d6000fd5b50505050505050565b60003a6304c4b40061065d9190610d81565b905090565b60008054906101000a900473ffffffffffffffffffffffffffffffffffffffff1681565b60003390503a6304c4b40061069b9190610d81565b600260008373ffffffffffffffffffffffffffffffffffffffff1673ffffffffffffffffffffffffffffffffffffffff16815260200190815260200160002054101561071c576040517f08c379a000000000000000000000000000000000000000000000000000000000815260040161071390610c04565b60405180910390fd5b60008451905060606040518260200181528260400181016040528360208201526020870151604082015260408701516060820152606087015160808201528091505060016040518060400160405280888152602001878763ffffffff169060201b1760401b815250908060018154018082558091505060019003906000526020600020906002020160009091909190915060008201518160000190805190602001906107c9929190610883565b5060208201518060601c9060401c63ffffffff168260010160006101000a81548177ffffffffffffffffffffffffffffffffffffffffffffffff02191690848463ffffffff169073ffffffffffffffffffffffffffffffffffffffff1660201b1702179055505050507fef87e24294defbf647d4ce97e9905a82d73c6e9e03417521acc5ba4aeaf1d618600180805490506108649190610ddb565b84604051610873929190610c7f565b60405180910390a1505050505050565b82805461088f90610eee565b90600052602060002090601f0160209004810192826108b157600085556108f8565b82601f106108ca57805160ff19168380011785556108f8565b828001600101855582156108f8579182015b828111156108f75782518255916020019190600101906108dc565b5b5090506109059190610909565b5090565b5b8082111561092257600081600090555060010161090a565b5090565b600061093961093484610ccd565b610ca8565b90508281526020810184848401111561095157600080fd5b61095c848285610eac565b509392505050565b600081359050610973816110c5565b92915050565b600082601f83011261098a57600080fd5b813561099a848260208601610926565b91505092915050565b6000813590506109b2816110dc565b92915050565b6000806109cd6109c885856109a3565b611023565b915091509250929050565b6000813590506109e7816110f3565b92915050565b6000602082840312156109ff57600080fd5b6000610a0d84828501610964565b91505092915050565b600080600060408486031215610a2b57600080fd5b600084013567ffffffffffffffff811115610a4557600080fd5b610a5186828701610979565b9350506020610a62868287016109b8565b92509250509250925092565b600060208284031215610a8057600080fd5b6000610a8e848285016109d8565b91505092915050565b600080600060608486031215610aac57600080fd5b6000610aba868287016109d8565b9350506020610acb868287016109d8565b9250506040610adc86828701610964565b9150509250925092565b610aef81610e0f565b82525050565b6000610b0082610cfe565b610b0a8185610d09565b9350610b1a818560208601610ebb565b610b2381610fde565b840191505092915050565b610b388282610e89565b8352505050565b6000610b4c600f83610d1a565b9150610b578261104a565b602082019050919050565b6000610b6f602083610d1a565b9150610b7a82611073565b602082019050919050565b6000610b92600d83610d1a565b9150610b9d8261109c565b602082019050919050565b610bb181610e7f565b82525050565b6000602082019050610bcc6000830184610ae6565b92915050565b60006040820190508181036000830152610bec8186610af5565b9050610bfc602083018486610b2e565b949350505050565b60006020820190508181036000830152610c1d81610b3f565b9050919050565b60006020820190508181036000830152610c3d81610b62565b9050919050565b60006020820190508181036000830152610c5d81610b85565b9050919050565b6000602082019050610c796000830184610ba8565b92915050565b6000604082019050610c946000830185610ba8565b610ca16020830184610ae6565b9392505050565b6000610cb2610cc3565b9050610cbe8282610f20565b919050565b6000604051905090565b600067ffffffffffffffff821115610ce857610ce7610faf565b5b610cf182610fde565b9050602081019050919050565b600081519050919050565b600082825260208201905092915050565b600082825260208201905092915050565b6000610d3682610e7f565b9150610d4183610e7f565b9250827fffffffffffffffffffffffffffffffffffffffffffffffffffffffffffffffff03821115610d7657610d75610f51565b5b828201905092915050565b6000610d8c82610e7f565b9150610d9783610e7f565b9250817fffffffffffffffffffffffffffffffffffffffffffffffffffffffffffffffff0483118215151615610dd057610dcf610f51565b5b828202905092915050565b6000610de682610e7f565b9150610df183610e7f565b925082821015610e0457610e03610f51565b5b828203905092915050565b6000610e1a82610e5f565b9050919050565b60007fffffffffffffffffffffffffffffffffffffffffffffffff000000000000000082169050919050565b6000610e5882610e21565b9050919050565b600073ffffffffffffffffffffffffffffffffffffffff82169050919050565b6000819050919050565b6000610ea463ffffffff8416610e9e84610fef565b17610ffc565b905092915050565b82818337600083830152505050565b60005b83811015610ed9578082015181840152602081019050610ebe565b83811115610ee8576000848401525b50505050565b60006002820490506001821680610f0657607f821691505b60208210811415610f1a57610f19610f80565b5b50919050565b610f2982610fde565b810181811067ffffffffffffffff82111715610f4857610f47610faf565b5b80604052505050565b7f4e487b7100000000000000000000000000000000000000000000000000000000600052601160045260246000fd5b7f4e487b7100000000000000000000000000000000000000000000000000000000600052602260045260246000fd5b7f4e487b7100000000000000000000000000000000000000000000000000000000600052604160045260246000fd5b6000601f19601f8301169050919050565b60008160201b9050919050565b60008160401b9050919050565b60008160201c9050919050565b60008160401c9050919050565b60008061102f83611016565b925063ffffffff8316905061104383611009565b9150915091565b7f62616c616e636520746f6f206c6f770000000000000000000000000000000000600082015250565b7f4f6e6c79206f7261636c65206f776e657220726573706f6e736520726174652e600082015250565b7f6e6f20656e6f7567682067617300000000000000000000000000000000000000600082015250565b6110ce81610e0f565b81146110d957600080fd5b50565b6110e581610e4d565b81146110f057600080fd5b50565b6110fc81610e7f565b811461110757600080fd5b5056fea264697066735822122040618204d4a004291a25992907a74f5dcd5b4e562bb3fc49c6a981aef8f3a56f64736f6c63430008010033",
  "immutableReferences": {},
  "source": "// SPDX-License-Identifier: MIT\r\npragma solidity ^0.8.1;\r\n\r\n\r\n\r\ncontract ExchangeRateOraclePassive {\r\n    address public oracleOwner;\r\n    uint public constant MINIMAL_GAS = 80000000;\r\n    uint public constant BASE_GAS = 3000000; // the amount of gas to excute reply other than the callback\r\n    struct Request {\r\n        bytes data;\r\n        function(uint) external callback;\r\n    }\r\n    Request[] public requests;\r\n    mapping(address=>uint) public balances;\r\n\r\n    event NewRequest(uint, address); // requestId, account address\r\n\r\n    constructor(){\r\n        oracleOwner = msg.sender;\r\n    }\r\n\r\n    // deposite gas fee for an account\r\n    // it will be used to call the callback\r\n    function topUp(address account) external payable {\r\n        balances[account] += msg.value;\r\n    }\r\n    function getPrice() public view returns(uint){\r\n        return MINIMAL_GAS * tx.gasprice;\r\n    }\r\n\r\n    function query(bytes memory data, function(uint) external callback) public {\r\n        address sender = msg.sender;\r\n        require(balances[sender] >= MINIMAL_GAS * tx.gasprice, \"balance too low\");\r\n\r\n        uint bytesLength = data.length;\r\n        bytes memory result;\r\n        assembly{\r\n            let p := mload(0x40)\r\n            mstore(p, add(0x20, bytesLength))   // length of the result\r\n            mstore(0x40, add(p, add(0x40, bytesLength)))  // move free pointer forward by 0x20 + 0x20 + bytesLength bytes\r\n            mstore(add(p, 0x20), sender)\r\n\r\n            mstore( add(p, 0x40), mload(add(data, 0x20)))\r\n            mstore( add(p, 0x60), mload(add(data, 0x40)))\r\n            mstore( add(p, 0x80), mload(add(data, 0x60)))\r\n            \r\n            result := p\r\n        }\r\n\r\n        requests.push(Request(data, callback));\r\n        emit NewRequest(requests.length - 1, sender);\r\n    }\r\n\r\n    function reply(uint requestID, uint response, address account) public {\r\n        // Here goes the check that the reply comes from a trusted source\r\n        require(msg.sender == oracleOwner, \"Only oracle owner response rate.\");\r\n        uint gasBefore = gasleft();\r\n        requests[requestID].callback{gas:MINIMAL_GAS - BASE_GAS}(response);\r\n        uint gasAfter = gasleft();\r\n        uint balanceSpent = (gasBefore - gasAfter + BASE_GAS) * tx.gasprice;\r\n        require(balances[account] >= balanceSpent, \"no enough gas\");\r\n        balances[account] -= balanceSpent;\r\n        // transfer the money spent back to oracle owner\r\n        payable(msg.sender).transfer(balanceSpent);\r\n    }\r\n\r\n}",
  "sourcePath": "C:\\Users\\Caleb\\Desktop\\school\\pattern\\lab\\oracle\\contracts\\ExchangeRateOraclePassive.sol",
  "compiler": {
    "name": "solc",
    "version": "0.8.1+commit.df193b15.Emscripten.clang"
  },
  "schemaVersion": "3.4.2",
  "updatedAt": "2022-01-22T23:21:30.919Z",
  "devdoc": {
    "kind": "dev",
    "methods": {},
    "version": 1
  },
  "userdoc": {
    "kind": "user",
    "methods": {},
    "version": 1
  }
}