{
  "contractName": "ExchangeRateOracle",
  "abi": [
    {
      "inputs": [],
      "stateMutability": "nonpayable",
      "type": "constructor"
    },
    {
      "inputs": [],
      "name": "oracleOwner",
      "outputs": [
        {
          "internalType": "address",
          "name": "",
          "type": "address"
        }
      ],
      "stateMutability": "view",
      "type": "function",
      "constant": true
    },
    {
      "inputs": [],
      "name": "usdToCad",
      "outputs": [
        {
          "internalType": "uint256",
          "name": "",
          "type": "uint256"
        }
      ],
      "stateMutability": "view",
      "type": "function",
      "constant": true
    },
    {
      "inputs": [],
      "name": "getUsdToCad",
      "outputs": [
        {
          "internalType": "uint256",
          "name": "",
          "type": "uint256"
        }
      ],
      "stateMutability": "view",
      "type": "function",
      "constant": true
    },
    {
      "inputs": [
        {
          "internalType": "uint256",
          "name": "newRate",
          "type": "uint256"
        }
      ],
      "name": "setUsdToCad",
      "outputs": [],
      "stateMutability": "nonpayable",
      "type": "function"
    }
  ],
  "bytecode": "0x608060405234801561001057600080fd5b5033600160006101000a81548173ffffffffffffffffffffffffffffffffffffffff021916908373ffffffffffffffffffffffffffffffffffffffff16021790555061032e806100616000396000f3fe608060405234801561001057600080fd5b506004361061004c5760003560e01c8063339709e4146100515780634fea032d1461006f578063a578be161461008b578063cd50fb1e146100a9575b600080fd5b6100596100c7565b6040516100669190610250565b60405180910390f35b610089600480360381019061008491906101ab565b6100d0565b005b61009361016a565b6040516100a09190610215565b60405180910390f35b6100b1610190565b6040516100be9190610250565b60405180910390f35b60008054905090565b600160009054906101000a900473ffffffffffffffffffffffffffffffffffffffff1673ffffffffffffffffffffffffffffffffffffffff163373ffffffffffffffffffffffffffffffffffffffff1614610160576040517f08c379a000000000000000000000000000000000000000000000000000000000815260040161015790610230565b60405180910390fd5b8060008190555050565b600160009054906101000a900473ffffffffffffffffffffffffffffffffffffffff1681565b60005481565b6000813590506101a5816102e1565b92915050565b6000602082840312156101bd57600080fd5b60006101cb84828501610196565b91505092915050565b6101dd8161027c565b82525050565b60006101f0601f8361026b565b91506101fb826102b8565b602082019050919050565b61020f816102ae565b82525050565b600060208201905061022a60008301846101d4565b92915050565b60006020820190508181036000830152610249816101e3565b9050919050565b60006020820190506102656000830184610206565b92915050565b600082825260208201905092915050565b60006102878261028e565b9050919050565b600073ffffffffffffffffffffffffffffffffffffffff82169050919050565b6000819050919050565b7f4f6e6c79206f7261636c65206f776e65722063616e2073657420726174652e00600082015250565b6102ea816102ae565b81146102f557600080fd5b5056fea26469706673582212203492c14872f08869e6d0db81d8011a574996a9b7d3e0ec1f6874db549fed0ce364736f6c63430008010033",
  "immutableReferences": {},
  "source": "// SPDX-License-Identifier: MIT\r\npragma solidity ^0.8.1;\r\n\r\ncontract ExchangeRateOracle {\r\n    uint256 public usdToCad;\r\n    address public oracleOwner;\r\n\r\n    constructor(){\r\n        oracleOwner = msg.sender;\r\n    }\r\n\r\n    function getUsdToCad() public view returns(uint256){\r\n        return usdToCad;\r\n    }\r\n\r\n    function setUsdToCad(uint256 newRate) public{\r\n        require(msg.sender == oracleOwner, \"Only oracle owner can set rate.\");\r\n        usdToCad = newRate;\r\n    }\r\n\r\n}",
  "sourcePath": "C:/Users/Caleb/Desktop/school/pattern/lab/oracle/contracts/ExchangeRateOracle.sol",
  "compiler": {
    "name": "solc",
    "version": "0.8.1+commit.df193b15.Emscripten.clang"
  },
  "schemaVersion": "3.4.2",
  "updatedAt": "2022-01-21T03:48:09.474Z",
  "networkType": "ethereum",
  "devdoc": {
    "kind": "dev",
    "methods": {},
    "version": 1
  },
  "userdoc": {
    "kind": "user",
    "methods": {},
    "version": 1
  }
}