{
  "contractName": "ExchangeRateOraclePassive",
  "abi": [
    {
      "inputs": [],
      "stateMutability": "nonpayable",
      "type": "constructor"
    },
    {
      "anonymous": false,
      "inputs": [
        {
          "indexed": false,
          "internalType": "uint256",
          "name": "",
          "type": "uint256"
        },
        {
          "indexed": false,
          "internalType": "address",
          "name": "",
          "type": "address"
        }
      ],
      "name": "NewRequest",
      "type": "event"
    },
    {
      "inputs": [],
      "name": "oracleOwner",
      "outputs": [
        {
          "internalType": "address",
          "name": "",
          "type": "address"
        }
      ],
      "stateMutability": "view",
      "type": "function"
    },
    {
      "inputs": [
        {
          "internalType": "uint256",
          "name": "",
          "type": "uint256"
        }
      ],
      "name": "requests",
      "outputs": [
        {
          "internalType": "bytes",
          "name": "data",
          "type": "bytes"
        },
        {
          "internalType": "uint256",
          "name": "valueAttached",
          "type": "uint256"
        },
        {
          "internalType": "function (uint256) external",
          "name": "callback",
          "type": "function"
        }
      ],
      "stateMutability": "view",
      "type": "function"
    },
    {
      "inputs": [
        {
          "internalType": "bytes",
          "name": "data",
          "type": "bytes"
        },
        {
          "internalType": "function (uint256) external",
          "name": "callback",
          "type": "function"
        }
      ],
      "name": "query",
      "outputs": [],
      "stateMutability": "payable",
      "type": "function"
    },
    {
      "inputs": [
        {
          "internalType": "uint256",
          "name": "requestID",
          "type": "uint256"
        },
        {
          "internalType": "uint256",
          "name": "response",
          "type": "uint256"
        }
      ],
      "name": "reply",
      "outputs": [],
      "stateMutability": "nonpayable",
      "type": "function"
    }
  ],
  "bytecode": "0x608060405234801561001057600080fd5b50336000806101000a81548173ffffffffffffffffffffffffffffffffffffffff021916908373ffffffffffffffffffffffffffffffffffffffff160217905550610d64806100606000396000f3fe60806040526004361061003f5760003560e01c806381d12c5814610044578063a578be1614610084578063c1e51817146100af578063d72d6770146100d8575b600080fd5b34801561005057600080fd5b5061006b60048036038101906100669190610770565b6100f4565b60405161007b949392919061089e565b60405180910390f35b34801561009057600080fd5b506100996101e2565b6040516100a69190610883565b60405180910390f35b3480156100bb57600080fd5b506100d660048036038101906100d19190610799565b610206565b005b6100f260048036038101906100ed9190610718565b6103f0565b005b6001818154811061010457600080fd5b906000526020600020906003020160009150905080600001805461012790610b52565b80601f016020809104026020016040519081016040528092919081815260200182805461015390610b52565b80156101a05780601f10610175576101008083540402835291602001916101a0565b820191906000526020600020905b81548152906001019060200180831161018357829003601f168201915b5050505050908060010154908060020160009054906101000a90048060201c73ffffffffffffffffffffffffffffffffffffffff169063ffffffff1690915084565b60008054906101000a900473ffffffffffffffffffffffffffffffffffffffff1681565b60008054906101000a900473ffffffffffffffffffffffffffffffffffffffff1673ffffffffffffffffffffffffffffffffffffffff163373ffffffffffffffffffffffffffffffffffffffff1614610294576040517f08c379a000000000000000000000000000000000000000000000000000000000815260040161028b906108fe565b60405180910390fd5b600182815481106102ce577f4e487b7100000000000000000000000000000000000000000000000000000000600052603260045260246000fd5b906000526020600020906003020160020160009054906101000a90048060201c73ffffffffffffffffffffffffffffffffffffffff169063ffffffff16826040518263ffffffff1660e01b8152600401610328919061091e565b600060405180830381600087803b15801561034257600080fd5b505af1158015610356573d6000803e3d6000fd5b505050503373ffffffffffffffffffffffffffffffffffffffff166108fc600184815481106103ae577f4e487b7100000000000000000000000000000000000000000000000000000000600052603260045260246000fd5b9060005260206000209060030201600101549081150290604051600060405180830381858888f193505050501580156103eb573d6000803e3d6000fd5b505050565b600033905060003490503a620f424061040991906109e5565b81101561044b576040517f08c379a0000000000000000000000000000000000000000000000000000000008152600401610442906108de565b60405180910390fd5b60008551905060606040518260200181528260400181016040528460208201526020880151604082015260408801516060820152606088015160808201528091505060016040518060600160405280838152602001858152602001888863ffffffff169060201b1760401b815250908060018154018082558091505060019003906000526020600020906003020160009091909190915060008201518160000190805190602001906104fe9291906105c3565b506020820151816001015560408201518060601c9060401c63ffffffff168260020160006101000a81548177ffffffffffffffffffffffffffffffffffffffffffffffff02191690848463ffffffff169073ffffffffffffffffffffffffffffffffffffffff1660201b1702179055505050507fef87e24294defbf647d4ce97e9905a82d73c6e9e03417521acc5ba4aeaf1d618600180805490506105a39190610a3f565b856040516105b2929190610939565b60405180910390a150505050505050565b8280546105cf90610b52565b90600052602060002090601f0160209004810192826105f15760008555610638565b82601f1061060a57805160ff1916838001178555610638565b82800160010185558215610638579182015b8281111561063757825182559160200191906001019061061c565b5b5090506106459190610649565b5090565b5b8082111561066257600081600090555060010161064a565b5090565b600061067961067484610987565b610962565b90508281526020810184848401111561069157600080fd5b61069c848285610b10565b509392505050565b600082601f8301126106b557600080fd5b81356106c5848260208601610666565b91505092915050565b6000813590506106dd81610d00565b92915050565b6000806106f86106f385856106ce565b610c87565b915091509250929050565b60008135905061071281610d17565b92915050565b60008060006040848603121561072d57600080fd5b600084013567ffffffffffffffff81111561074757600080fd5b610753868287016106a4565b9350506020610764868287016106e3565b92509250509250925092565b60006020828403121561078257600080fd5b600061079084828501610703565b91505092915050565b600080604083850312156107ac57600080fd5b60006107ba85828601610703565b92505060206107cb85828601610703565b9150509250929050565b6107de81610a73565b82525050565b60006107ef826109b8565b6107f981856109c3565b9350610809818560208601610b1f565b61081281610c42565b840191505092915050565b6108278282610aed565b8352505050565b600061083b6014836109d4565b915061084682610cae565b602082019050919050565b600061085e6020836109d4565b915061086982610cd7565b602082019050919050565b61087d81610ae3565b82525050565b600060208201905061089860008301846107d5565b92915050565b600060608201905081810360008301526108b881876107e4565b90506108c76020830186610874565b6108d560408301848661081d565b95945050505050565b600060208201905081810360008301526108f78161082e565b9050919050565b6000602082019050818103600083015261091781610851565b9050919050565b60006020820190506109336000830184610874565b92915050565b600060408201905061094e6000830185610874565b61095b60208301846107d5565b9392505050565b600061096c61097d565b90506109788282610b84565b919050565b6000604051905090565b600067ffffffffffffffff8211156109a2576109a1610c13565b5b6109ab82610c42565b9050602081019050919050565b600081519050919050565b600082825260208201905092915050565b600082825260208201905092915050565b60006109f082610ae3565b91506109fb83610ae3565b9250817fffffffffffffffffffffffffffffffffffffffffffffffffffffffffffffffff0483118215151615610a3457610a33610bb5565b5b828202905092915050565b6000610a4a82610ae3565b9150610a5583610ae3565b925082821015610a6857610a67610bb5565b5b828203905092915050565b6000610a7e82610ac3565b9050919050565b60007fffffffffffffffffffffffffffffffffffffffffffffffff000000000000000082169050919050565b6000610abc82610a85565b9050919050565b600073ffffffffffffffffffffffffffffffffffffffff82169050919050565b6000819050919050565b6000610b0863ffffffff8416610b0284610c53565b17610c60565b905092915050565b82818337600083830152505050565b60005b83811015610b3d578082015181840152602081019050610b22565b83811115610b4c576000848401525b50505050565b60006002820490506001821680610b6a57607f821691505b60208210811415610b7e57610b7d610be4565b5b50919050565b610b8d82610c42565b810181811067ffffffffffffffff82111715610bac57610bab610c13565b5b80604052505050565b7f4e487b7100000000000000000000000000000000000000000000000000000000600052601160045260246000fd5b7f4e487b7100000000000000000000000000000000000000000000000000000000600052602260045260246000fd5b7f4e487b7100000000000000000000000000000000000000000000000000000000600052604160045260246000fd5b6000601f19601f8301169050919050565b60008160201b9050919050565b60008160401b9050919050565b60008160201c9050919050565b60008160401c9050919050565b600080610c9383610c7a565b925063ffffffff83169050610ca783610c6d565b9150915091565b7f61747461636865642066656520746f6f206c6f77000000000000000000000000600082015250565b7f4f6e6c79206f7261636c65206f776e657220726573706f6e736520726174652e600082015250565b610d0981610ab1565b8114610d1457600080fd5b50565b610d2081610ae3565b8114610d2b57600080fd5b5056fea264697066735822122072f4e544f16403629210c31ce7cc064e7f26914efcd16d988e7364396cab049764736f6c63430008010033",
  "immutableReferences": {},
  "source": "// SPDX-License-Identifier: MIT\r\npragma solidity ^0.8.1;\r\n\r\ncontract ExchangeRateOraclePassive {\r\n    address public oracleOwner;\r\n    struct Request {\r\n        bytes data;\r\n        uint valueAttached;\r\n        function(uint) external callback;\r\n    }\r\n    Request[] public requests;\r\n\r\n    event NewRequest(uint, address); // requestId, account address\r\n\r\n    constructor(){\r\n        oracleOwner = msg.sender;\r\n    }\r\n\r\n    // user has to send query with the gas fee\r\n    function query(bytes memory data, function(uint) external callback) public payable {\r\n        address sender = msg.sender;\r\n        uint256 valueAttached = msg.value;\r\n        require(valueAttached >= 1000000 * tx.gasprice, \"attached fee too low\");\r\n\r\n        // concate sender address and data\r\n        uint bytesLength = data.length;\r\n        bytes memory result;\r\n        assembly{\r\n            let p := mload(0x40)\r\n            mstore(p, add(0x20, bytesLength))   // length of the result\r\n            mstore(0x40, add(p, add(0x40, bytesLength)))  // move free pointer forward by 0x20 + 0x20 + bytesLength bytes\r\n            mstore(add(p, 0x20), sender)\r\n\r\n            mstore( add(p, 0x40), mload(add(data, 0x20)))\r\n            mstore( add(p, 0x60), mload(add(data, 0x40)))\r\n            mstore( add(p, 0x80), mload(add(data, 0x60)))\r\n            \r\n            result := p\r\n        }\r\n\r\n        // add request to task queue\r\n        requests.push(Request(result, valueAttached, callback));\r\n        emit NewRequest(requests.length - 1, sender);\r\n    }\r\n\r\n    function reply(uint requestID, uint response) public {\r\n        // Here goes the check that the reply comes from a trusted source\r\n        require(msg.sender == oracleOwner, \"Only oracle owner response rate.\");\r\n        requests[requestID].callback(response);\r\n        payable(msg.sender).transfer(requests[requestID].valueAttached);\r\n    }\r\n\r\n}",
  "sourcePath": "C:\\Users\\Caleb\\Desktop\\school\\pattern\\lab\\oracle\\contracts\\ExchangeRateOraclePassive.sol",
  "compiler": {
    "name": "solc",
    "version": "0.8.1+commit.df193b15.Emscripten.clang"
  },
  "schemaVersion": "3.4.2",
  "updatedAt": "2022-01-29T20:33:07.205Z",
  "devdoc": {
    "kind": "dev",
    "methods": {},
    "version": 1
  },
  "userdoc": {
    "kind": "user",
    "methods": {},
    "version": 1
  }
}