{
  "contractName": "PassiveOracleUser",
  "abi": [
    {
      "inputs": [],
      "stateMutability": "nonpayable",
      "type": "constructor"
    },
    {
      "inputs": [],
      "name": "exchangeRate",
      "outputs": [
        {
          "internalType": "uint256",
          "name": "",
          "type": "uint256"
        }
      ],
      "stateMutability": "view",
      "type": "function"
    },
    {
      "inputs": [
        {
          "internalType": "address",
          "name": "newContract",
          "type": "address"
        }
      ],
      "name": "setOracle",
      "outputs": [],
      "stateMutability": "nonpayable",
      "type": "function"
    },
    {
      "inputs": [],
      "name": "requestExchangeRate",
      "outputs": [],
      "stateMutability": "payable",
      "type": "function"
    },
    {
      "inputs": [
        {
          "internalType": "uint256",
          "name": "response",
          "type": "uint256"
        }
      ],
      "name": "oracleResponse",
      "outputs": [],
      "stateMutability": "nonpayable",
      "type": "function"
    }
  ],
  "bytecode": "0x608060405234801561001057600080fd5b5033600260006101000a81548173ffffffffffffffffffffffffffffffffffffffff021916908373ffffffffffffffffffffffffffffffffffffffff160217905550610712806100616000396000f3fe60806040526004361061003f5760003560e01c80633ba0b9a914610044578063581e1a681461006f5780637adbf97314610079578063a1dda338146100a2575b600080fd5b34801561005057600080fd5b506100596100cb565b604051610066919061052e565b60405180910390f35b6100776100d1565b005b34801561008557600080fd5b506100a0600480360381019061009b91906103a0565b61020b565b005b3480156100ae57600080fd5b506100c960048036038101906100c491906103c9565b6102de565b005b60015481565b600073ffffffffffffffffffffffffffffffffffffffff1660008054906101000a900473ffffffffffffffffffffffffffffffffffffffff1673ffffffffffffffffffffffffffffffffffffffff161415610161576040517f08c379a00000000000000000000000000000000000000000000000000000000081526004016101589061049e565b60405180910390fd5b60008054906101000a900473ffffffffffffffffffffffffffffffffffffffff1673ffffffffffffffffffffffffffffffffffffffff1663d72d6770343073ffffffffffffffffffffffffffffffffffffffff1663a1dda3386040518463ffffffff1660e01b81526004016101d79291906104de565b6000604051808303818588803b1580156101f057600080fd5b505af1158015610204573d6000803e3d6000fd5b5050505050565b3373ffffffffffffffffffffffffffffffffffffffff16600260009054906101000a900473ffffffffffffffffffffffffffffffffffffffff1673ffffffffffffffffffffffffffffffffffffffff161461029b576040517f08c379a0000000000000000000000000000000000000000000000000000000008152600401610292906104be565b60405180910390fd5b806000806101000a81548173ffffffffffffffffffffffffffffffffffffffff021916908373ffffffffffffffffffffffffffffffffffffffff16021790555050565b60008054906101000a900473ffffffffffffffffffffffffffffffffffffffff1673ffffffffffffffffffffffffffffffffffffffff163373ffffffffffffffffffffffffffffffffffffffff161461036c576040517f08c379a00000000000000000000000000000000000000000000000000000000081526004016103639061050e565b60405180910390fd5b8060018190555050565b600081359050610385816106ae565b92915050565b60008135905061039a816106c5565b92915050565b6000602082840312156103b257600080fd5b60006103c084828501610376565b91505092915050565b6000602082840312156103db57600080fd5b60006103e98482850161038b565b91505092915050565b6103fc82826105a7565b8352505050565b6000610410601c8361055a565b915061041b826105e4565b602082019050919050565b600061043360338361055a565b915061043e8261060d565b604082019050919050565b6000610456600383610549565b91506104618261065c565b602082019050919050565b6000610479601a8361055a565b915061048482610685565b602082019050919050565b6104988161059d565b82525050565b600060208201905081810360008301526104b781610403565b9050919050565b600060208201905081810360008301526104d781610426565b9050919050565b600060408201905081810360008301526104f781610449565b90506105076020830184866103f2565b9392505050565b600060208201905081810360008301526105278161046c565b9050919050565b6000602082019050610543600083018461048f565b92915050565b600082825260208201905092915050565b600082825260208201905092915050565b60006105768261057d565b9050919050565b600073ffffffffffffffffffffffffffffffffffffffff82169050919050565b6000819050919050565b60006105c263ffffffff84166105bc846105ca565b176105d7565b905092915050565b60008160201b9050919050565b60008160401b9050919050565b7f706c65617365207365747570206f7261636c6520636f6e747261637400000000600082015250565b7f6f6e6c7920636f6e7472616374206f776e65722063616e20736574206f72616360008201527f6c6520636f6e7472616374206164647265737300000000000000000000000000602082015250565b7f5553440000000000000000000000000000000000000000000000000000000000600082015250565b7f4f6e6c79206f7261636c652063616e2063616c6c20746869732e000000000000600082015250565b6106b78161056b565b81146106c257600080fd5b50565b6106ce8161059d565b81146106d957600080fd5b5056fea2646970667358221220dec48338fe41c3621155f0330a6fa78b9e0b60268fbbe417ef04369120f94c7564736f6c63430008010033",
  "immutableReferences": {},
  "source": "// SPDX-License-Identifier: MIT\r\npragma solidity ^0.8.1;\r\n\r\nimport './ExchangeRateOraclePassive.sol';\r\n\r\n\r\ncontract PassiveOracleUser {\r\n    ExchangeRateOraclePassive private oracle;\r\n    uint public exchangeRate;\r\n    address owner;\r\n    \r\n    constructor() {\r\n        owner = msg.sender;\r\n    }\r\n\r\n    function setOracle(address newContract) public{\r\n        require(owner == msg.sender, \"only contract owner can set oracle contract address\");\r\n        oracle = ExchangeRateOraclePassive(newContract);\r\n    }\r\n\r\n\r\n    function requestExchangeRate() public payable{\r\n        require(address(oracle)!=address(0x0), \"please setup oracle contract\");\r\n        oracle.query{value: msg.value}(\"USD\", this.oracleResponse);\r\n    }\r\n\r\n    function oracleResponse(uint response) public {\r\n        require(\r\n            msg.sender == address(oracle),\r\n            \"Only oracle can call this.\"\r\n        );\r\n        exchangeRate = response;\r\n    }\r\n}",
  "sourcePath": "C:\\Users\\Caleb\\Desktop\\school\\pattern\\lab\\oracle\\contracts\\PassiveOracleUser.sol",
  "compiler": {
    "name": "solc",
    "version": "0.8.1+commit.df193b15.Emscripten.clang"
  },
  "schemaVersion": "3.4.2",
  "updatedAt": "2022-01-29T20:33:07.213Z",
  "devdoc": {
    "kind": "dev",
    "methods": {},
    "version": 1
  },
  "userdoc": {
    "kind": "user",
    "methods": {},
    "version": 1
  }
}