{
  "contractName": "PassiveOracleUser",
  "abi": [
    {
      "inputs": [],
      "stateMutability": "nonpayable",
      "type": "constructor"
    },
    {
      "inputs": [],
      "name": "exchangeRate",
      "outputs": [
        {
          "internalType": "uint256",
          "name": "",
          "type": "uint256"
        }
      ],
      "stateMutability": "view",
      "type": "function"
    },
    {
      "inputs": [
        {
          "internalType": "address",
          "name": "newContract",
          "type": "address"
        }
      ],
      "name": "setOracle",
      "outputs": [],
      "stateMutability": "nonpayable",
      "type": "function"
    },
    {
      "inputs": [],
      "name": "buySomething",
      "outputs": [],
      "stateMutability": "nonpayable",
      "type": "function"
    },
    {
      "inputs": [
        {
          "internalType": "uint256",
          "name": "response",
          "type": "uint256"
        }
      ],
      "name": "oracleResponse",
      "outputs": [],
      "stateMutability": "nonpayable",
      "type": "function"
    }
  ],
  "bytecode": "0x608060405234801561001057600080fd5b5033600260006101000a81548173ffffffffffffffffffffffffffffffffffffffff021916908373ffffffffffffffffffffffffffffffffffffffff1602179055506106f7806100616000396000f3fe608060405234801561001057600080fd5b506004361061004c5760003560e01c80633ba0b9a9146100515780637adbf9731461006f578063a1dda3381461008b578063b0f373f9146100a7575b600080fd5b6100596100b1565b6040516100669190610513565b60405180910390f35b61008960048036038101906100849190610385565b6100b7565b005b6100a560048036038101906100a091906103ae565b61018a565b005b6100af610222565b005b60015481565b3373ffffffffffffffffffffffffffffffffffffffff16600260009054906101000a900473ffffffffffffffffffffffffffffffffffffffff1673ffffffffffffffffffffffffffffffffffffffff1614610147576040517f08c379a000000000000000000000000000000000000000000000000000000000815260040161013e906104a3565b60405180910390fd5b806000806101000a81548173ffffffffffffffffffffffffffffffffffffffff021916908373ffffffffffffffffffffffffffffffffffffffff16021790555050565b60008054906101000a900473ffffffffffffffffffffffffffffffffffffffff1673ffffffffffffffffffffffffffffffffffffffff163373ffffffffffffffffffffffffffffffffffffffff1614610218576040517f08c379a000000000000000000000000000000000000000000000000000000000815260040161020f906104f3565b60405180910390fd5b8060018190555050565b600073ffffffffffffffffffffffffffffffffffffffff1660008054906101000a900473ffffffffffffffffffffffffffffffffffffffff1673ffffffffffffffffffffffffffffffffffffffff1614156102b2576040517f08c379a00000000000000000000000000000000000000000000000000000000081526004016102a990610483565b60405180910390fd5b60008054906101000a900473ffffffffffffffffffffffffffffffffffffffff1673ffffffffffffffffffffffffffffffffffffffff1663d72d67703073ffffffffffffffffffffffffffffffffffffffff1663a1dda3386040518363ffffffff1660e01b81526004016103279291906104c3565b600060405180830381600087803b15801561034157600080fd5b505af1158015610355573d6000803e3d6000fd5b50505050565b60008135905061036a81610693565b92915050565b60008135905061037f816106aa565b92915050565b60006020828403121561039757600080fd5b60006103a58482850161035b565b91505092915050565b6000602082840312156103c057600080fd5b60006103ce84828501610370565b91505092915050565b6103e1828261058c565b8352505050565b60006103f5601c8361053f565b9150610400826105c9565b602082019050919050565b600061041860338361053f565b9150610423826105f2565b604082019050919050565b600061043b60038361052e565b915061044682610641565b602082019050919050565b600061045e601a8361053f565b91506104698261066a565b602082019050919050565b61047d81610582565b82525050565b6000602082019050818103600083015261049c816103e8565b9050919050565b600060208201905081810360008301526104bc8161040b565b9050919050565b600060408201905081810360008301526104dc8161042e565b90506104ec6020830184866103d7565b9392505050565b6000602082019050818103600083015261050c81610451565b9050919050565b60006020820190506105286000830184610474565b92915050565b600082825260208201905092915050565b600082825260208201905092915050565b600061055b82610562565b9050919050565b600073ffffffffffffffffffffffffffffffffffffffff82169050919050565b6000819050919050565b60006105a763ffffffff84166105a1846105af565b176105bc565b905092915050565b60008160201b9050919050565b60008160401b9050919050565b7f706c65617365207365747570206f7261636c6520636f6e747261637400000000600082015250565b7f6f6e6c7920636f6e7472616374206f776e65722063616e20736574206f72616360008201527f6c6520636f6e7472616374206164647265737300000000000000000000000000602082015250565b7f5553440000000000000000000000000000000000000000000000000000000000600082015250565b7f4f6e6c79206f7261636c652063616e2063616c6c20746869732e000000000000600082015250565b61069c81610550565b81146106a757600080fd5b50565b6106b381610582565b81146106be57600080fd5b5056fea264697066735822122024862323eab6abf51d418233188769712bb1c5ab69d3cc1bd5c58016ff6e068664736f6c63430008010033",
  "immutableReferences": {},
  "source": "// SPDX-License-Identifier: MIT\r\npragma solidity ^0.8.1;\r\n\r\nimport './ExchangeRateOraclePassive.sol';\r\n\r\n\r\ncontract PassiveOracleUser {\r\n    ExchangeRateOraclePassive private oracle;\r\n    uint public exchangeRate;\r\n    address owner;\r\n    \r\n    constructor() {\r\n        owner = msg.sender;\r\n    }\r\n\r\n    function setOracle(address newContract) public{\r\n        require(owner == msg.sender, \"only contract owner can set oracle contract address\");\r\n        oracle = ExchangeRateOraclePassive(newContract);\r\n    }\r\n\r\n\r\n    function buySomething() public {\r\n        require(address(oracle)!=address(0x0), \"please setup oracle contract\");\r\n        oracle.query(\"USD\", this.oracleResponse);\r\n    }\r\n\r\n    function oracleResponse(uint response) public {\r\n        require(\r\n            msg.sender == address(oracle),\r\n            \"Only oracle can call this.\"\r\n        );\r\n        exchangeRate = response;\r\n    }\r\n}",
  "sourcePath": "C:\\Users\\Caleb\\Desktop\\school\\pattern\\lab\\oracle\\contracts\\PassiveOracleUser.sol",
  "compiler": {
    "name": "solc",
    "version": "0.8.1+commit.df193b15.Emscripten.clang"
  },
  "schemaVersion": "3.4.2",
  "updatedAt": "2022-01-22T23:21:30.926Z",
  "devdoc": {
    "kind": "dev",
    "methods": {},
    "version": 1
  },
  "userdoc": {
    "kind": "user",
    "methods": {},
    "version": 1
  }
}